:020000040000FA
:100000000C945D000C9485000C9485000C94850084
:100010000C9485000C9485000C9485000C9485004C
:100020000C9485000C9485000C9485000C9485003C
:100030000C9485000C9485000C9485000C9485002C
:100040000C94E5030C9485000C94B3030C948D037D
:100050000C9485000C9485000C9485000C9485000C
:100060000C942F040C94850000000008000201008D
:100070000003040700000000000000000000000072
:10008000250028002B0000000000240027002A0083
:10009000040404040404040402020202020203032E
:1000A0000303030301020408102040800102040836
:1000B00010200102040810204E0511241FBECFEFAE
:1000C000D8E0DEBFCDBF11E0A0E0B1E0E2E1FFE0AB
:1000D00002C005900D92A237B107D9F722E0A2E73E
:1000E000B1E001C01D92AE3DB207E1F710E0CDE5F1
:1000F000D0E004C02197FE010E948107CC35D107D2
:10010000C9F70E9487050C9487070C940000089596
:100110000895AF92BF92CF92DF92EF92FF920F932A
:100120001F93CF93DF936C017B018B01040F151F8D
:10013000EB015E01AE18BF08C017D10759F06991F5
:10014000D601ED91FC910190F081E02DC601099559
:10015000892B79F7C501DF91CF911F910F91FF9006
:10016000EF90DF90CF90BF90AF900895FC01538D3A
:10017000448D252F30E0842F90E0821B930B541781
:1001800010F0CF96089501970895FC01918D828D0E
:10019000981761F0A28DAE0FBF2FB11D5D968C91A7
:1001A000928D9F5F9F73928F90E008958FEF9FEFE6
:1001B0000895FC01918D828D981731F0828DE80FA2
:1001C000F11D858D90E008958FEF9FEF0895FC015C
:1001D000918D228D892F90E0805C9F4F821B910929
:1001E0008F739927089585E392E00E94E70021E04C
:1001F000892B09F420E0822F089580E090E0892B7C
:1002000029F00E94F30081110C9400000895FC0174
:10021000A48DA80FB92FB11DA35ABF4F2C91848D67
:1002200090E001968F739927848FA689B7892C93C4
:10023000A089B1898C91837080648C93938D848D17
:10024000981306C00288F389E02D80818F7D80831A
:100250000895EF92FF920F931F93CF93DF93EC01DA
:1002600081E0888F9B8D8C8D98131AC0E889F9895D
:10027000808185FF15C09FB7F894EE89FF89608360
:10028000E889F98980818370806480839FBF81E0E1
:1002900090E0DF91CF911F910F91FF90EF90089523
:1002A000F62E0B8D10E00F5F1F4F0F731127E02EFE
:1002B0008C8D8E110CC00FB607FCFACFE889F98936
:1002C000808185FFF5CFCE010E940701F1CFEB8D34
:1002D000EC0FFD2FF11DE35AFF4FF0829FB7F8940A
:1002E0000B8FEA89FB8980818062CFCFCF93DF9328
:1002F000EC01888D8823B9F0AA89BB89E889F9893E
:100300008C9185FD03C0808186FD0DC00FB607FC72
:10031000F7CF8C9185FFF2CF808185FFEDCFCE01A5
:100320000E940701E9CFDF91CF91089590E0FC0191
:10033000E859FF4F2491FC01EC55FF4F3491FC012B
:10034000E057FF4FE491EE23C9F0222339F0233028
:1003500001F1A8F4213019F1223029F1F0E0EE0F7B
:10036000FF1FE458FF4FA591B4918FB7F894EC911B
:10037000611126C030953E233C938FBF08952730EE
:10038000A9F02830C9F0243049F7809180008F7D92
:1003900003C0809180008F7780938000DFCF84B589
:1003A0008F7784BDDBCF84B58F7DFBCF8091B0008C
:1003B0008F778093B000D2CF8091B0008F7DF9CF3E
:1003C0003E2BDACF3FB7F8948091DB019091DC01AE
:1003D000A091DD01B091DE0126B5A89B05C02F3F9D
:1003E00019F00196A11DB11D3FBFBA2FA92F982F5B
:1003F0008827BC01CD01620F711D811D911D42E056
:10040000660F771F881F991F4A95D1F7089520918D
:10041000B301260F3327331F21323105ECF420912D
:100420000B02FC0190E080E0243069F082E0089546
:10043000A091B3012191AC014D565E4FA40FB52F91
:10044000B11D2C930196861798F38091B301680F24
:100450006093B30180E0089581E0089510920B024B
:1004600081E080930A021092E50161E082E10E943E
:10047000960161E083E10E949601E9EBF0E0808162
:100480008E7F808380818D7F808388E48093B80015
:1004900085E48093BC000895CF93DF9391E090931F
:1004A00092018823B9F0C091B800D091BA00809130
:1004B000BC008A7B8093BC0060E082E10E949601D0
:1004C00060E083E10E9496010E942E02D093BA0060
:1004D000C093B800DF91CF9108950895E091E401B1
:1004E0008091E301E81730F4F0E0EE58FE4F808190
:1004F00090E008958FEF9FEF08959091E40180912F
:10050000E3012FEF3FEF981748F4E92FF0E0EE58A2
:10051000FE4F208130E09F5F9093E401C901089570
:100520008091E3019091E401891B990B0895CF928A
:10053000DF92EF92FF920F931F93CF93DF937C0193
:10054000CB018A0120911102222389F0EB016B017A
:10055000C40ED51ECC15DD0569F06991D701ED916A
:10056000FC910190F081E02DC7010995F3CF642F34
:100570000E940702C801DF91CF911F910F91FF9058
:10058000EF90DF90CF900895CF93DF931F92CDB778
:10059000DEB76983209111022223F9F02091340201
:1005A000203258F021E030E0FC013383228390E0D8
:1005B00080E00F90DF91CF91089580911202E82F93
:1005C000F0E0ED5EFD4F998190838F5F8093120282
:1005D0008093340281E090E0ECCF61E0CE0101969F
:1005E0000E940702F7CF90E080E00895FC0101909F
:1005F0000020E9F73197AF01481B590BBC0185E397
:1006000092E00C9489008F929F92AF92BF920F93C9
:100610001F93CF93DF93CDB7DEB7A1970FB6F894B2
:10062000DEBF0FBECDBF19A2423008F44AE08E01F2
:100630000F5D1F4F842E912CB12CA12CA50194018C
:100640000E945F07E62FB901CA01EA30F4F4E05DC9
:10065000D801EE938D01232B242B252B79F790E0E5
:1006600080E0109719F0CD010E94F602A1960FB616
:10067000F894DEBF0FBECDBFDF91CF911F910F91D8
:10068000BF90AF909F908F900895E95CE1CFCF939A
:10069000DF930E94F602EC0184E291E00E94F602F0
:1006A0008C0F9D1FDF91CF91089585ED8093BC0045
:1006B00080910D0290910E02A0910F02B091100254
:1006C0000796A11DB11D23E0B695A795979587952F
:1006D0002A95D1F72091BC0024FD03C010920B0293
:1006E000089540910D0250910E0260910F02709199
:1006F0001002452B462B472B69F30097A105B10546
:1007000041F025E32A95F1F700000197A109B1090D
:10071000E1CF80910C020C944C021F920F920FB605
:100720000F9211242F933F934F935F936F937F9377
:100730008F939F93AF93BF93EF93FF9385E392E0E3
:100740000E940701FF91EF91BF91AF919F918F910F
:100750007F916F915F914F913F912F910F900FBEBD
:100760000F901F9018951F920F920FB60F921124A1
:100770002F938F939F93EF93FF93E0914502F09116
:1007800046028081E0914B02F0914C0282FD1BC039
:10079000908180914E028F5F8F7320914F0282175C
:1007A00041F0E0914E02F0E0EB5CFD4F958F8093BD
:1007B0004E02FF91EF919F918F912F910F900FBE5D
:1007C0000F901F9018958081F4CF1F920F920FB653
:1007D0000F9211242F933F938F939F93AF93BF93C7
:1007E0008091D7019091D801A091D901B091DA01FF
:1007F0003091D60123E0230F2D3758F50196A11D26
:10080000B11D2093D6018093D7019093D801A09376
:10081000D901B093DA018091DB019091DC01A091C4
:10082000DD01B091DE010196A11DB11D8093DB01B8
:100830009093DC01A093DD01B093DE01BF91AF91F5
:100840009F918F913F912F910F900FBE0F901F900E
:10085000189526E8230F0296A11DB11DD2CF1F9235
:100860000F920FB60F9211242F933F934F935F93E4
:100870006F937F938F939F93AF93BF93EF93FF9368
:100880008091B900887F803609F44AC0F0F588323B
:1008900009F4A7C018F5803109F49BC0B8F4882387
:1008A00009F4F9C0883009F494C0FF91EF91BF9129
:1008B000AF919F918F917F916F915F914F913F91F8
:1008C0002F910F900FBE0F901F901895883109F44B
:1008D00088C0803251F78093090214C0803409F433
:1008E0009DC040F48033B9F38833F9F68093090250
:1008F00085ECB0C0803509F485C0883509F496C010
:10090000883499F60E945503D0CF883909F48CC0F9
:1009100038F5883729F050F4883611F0803729F6F9
:1009200083E080930B021092D50157C0883809F4F8
:100930007BC0803919F0803809F0B7CF8091D5019C
:10094000803208F071C0E091D50181E08E0F809374
:10095000D5018091BB00F0E0EB54FE4F80833DC099
:10096000803B39F0E0F4803A09F479C0883A09F024
:100970009CCF84E080930B021092B4011092B301DB
:10098000E091E101F091E20109958091B3018111BB
:100990000FC081E08093B3011092930109C0803CA5
:1009A00009F4A6CF883C09F4A3CF883B09F07DCF9A
:1009B000E091B40181E08E0F8093B401F0E0ED5638
:1009C000FE4F80818093BB009091B4018091B30170
:1009D00029C08091E6018093BB0085EC8093BC0028
:1009E00064CF9091080280910702981758F5E09122
:1009F000080281E08E0F80930802F0E0E951FE4F7B
:100A00008081E9CFE091080281E08E0F8093080297
:100A10008091BB00F0E0E951FE4F80839091080285
:100A2000809107029817C8F285E8D8CFE0910802B4
:100A300081E08E0F809308028091BB00F0E0E951C5
:100A4000FE4F808380910A0281115CCF81E0809308
:100A5000E50184EA8093BC0010920B0226CF85EC5E
:100A60008093BC0010920B028091D501803230F44B
:100A7000E091D501F0E0EB54FE4F10826091D5017A
:100A800070E0E091DF01F091E00185EB91E00995E4
:100A90001092D5010ACF1092090234CFE5E3F2E0BB
:100AA0001382128288EE93E0A0E0B0E08483958305
:100AB000A683B78324E031E03183208325EC30E046
:100AC0003587248724EC30E03787268720EC30E018
:100AD000318B208B21EC30E0338B228B22EC30E009
:100AE000358B248B26EC30E0378B268B118E128EC3
:100AF000138E148EE2EDF2E01382128284839583CA
:100B0000A683B78386E191E09183808308957894EA
:100B100084B5826084BD84B5816084BD85B5826002
:100B200085BD85B5816085BD80916E0081608093B3
:100B30006E0010928100809181008260809381001C
:100B4000809181008160809381008091800081602C
:100B5000809380008091B10084608093B100809187
:100B6000B00081608093B00080917A0084608093AF
:100B70007A0080917A00826080937A0080917A0076
:100B8000816080937A0080917A00806880937A00F7
:100B90001092C100E0914502F091460282E080830C
:100BA000E0914102F09142021082E0914302F09103
:100BB000440280E1808310924D02E0914902F0915D
:100BC0004A0286E08083E0914702F09148028081EA
:100BD00080618083E0914702F091480280818860C3
:100BE0008083E0914702F091480280818068808391
:100BF000E0914702F091480280818F7D808384E2FA
:100C000091E00E94F60287E291E00E944703E1EB47
:100C1000F0E02491EDE9F0E08491882399F090E0F0
:100C2000880F991FFC01EA57FF4FA591B491FC0171
:100C3000E458FF4F859194918FB7F894EC91E22B93
:100C4000EC938FBF61E08DE00E9496011092E40169
:100C50001092E3010E942E0287E890E09093E20157
:100C60008093E10188E890E09093E0018093DF01B8
:100C7000C12CD12C7601C394C0E0D1E092E0A92E22
:100C80001FEF05EE25ECB22E9C2CD0931102C092E2
:100C9000330210921202109234020E94E2012B01E0
:100CA0003C0180910B02811161C0A0920B02D09394
:100CB0000A02109309021092080210920702109281
:100CC000E6018091E601990C982A9092E6018091C4
:100CD000E501813009F0C8C01092E5010E94E201EF
:100CE0002B013C018091E6018093BB0080910D02B5
:100CF00090910E02A0910F02B0911002892B8A2BC5
:100D00008B2BA1F00E94E20120910D0230910E0286
:100D100040910F02509110026419750986099709D4
:100D2000261737074807590708F441C08091BC00CF
:100D300083FDD8CFB092BC000E94E2012B013C01A0
:100D400080910B02823009F492C0809109028F3F9A
:100D500009F4AFC080910902803209F4ACC08091DF
:100D60000902803309F4A9C084E026C080910D02F5
:100D700090910E02A0910F02B0911002892B8A2B44
:100D80008B2B09F48ECF0E94E20120910D0230914D
:100D90000E0240910F0250911002641975098609E4
:100DA0009709261737074807590708F07ACF809127
:100DB0000C020E944C0285E0109212021092340242
:100DC00010921102811126C081E491E00E94F60286
:100DD0004AE0C701B6010E94030381E591E00E9449
:100DE000F60240E1C701B6010E94030386E591E0E7
:100DF0000E944703CF5F0E94E2012B013C010E9449
:100E0000E2016419750986099709683E73408105F6
:100E10009105A8F38FEFC81AD80AE80AF80A28E75C
:100E2000C216D104E104F10409F02ECF88E591E067
:100E30000E9447038EE591E00E94F6026C2F70E05D
:100E400090E080E04AE00E94030385E691E00E9482
:100E50004703C0E0D0E02097F1F30E94F30088231D
:100E6000D1F30E940000F7CF0093BC0065CF8091C2
:100E70000D0290910E02A0910F02B0911002892BE9
:100E80008A2B8B2B09F45CCF0E94E20120910D028A
:100E900030910E0240910F025091100264197509B1
:100EA00086099709261737074807590708F048CFDA
:100EB0007ECF80E081CF82E07FCF83E07DCFA1E253
:100EC0001A2EAA1BBB1BFD010DC0AA1FBB1FEE1FC4
:100ED000FF1FA217B307E407F50720F0A21BB30B0F
:100EE000E40BF50B661F771F881F991F1A9469F78B
:100EF00060957095809590959B01AC01BD01CF01E7
:100F00000895EE0FFF1F0590F491E02D0994F894D9
:100F1000FFCF0000000029018900B6007601E7003C
:100F2000C500D90000000000C4029702F3026D0260
:100F300090027D026E020D0A004932432073636104
:100F40006E6E65722E205363616E6E696E67202E21
:100F50002E2E00466F756E64206164647265737333
:100F60003A200020283078002900446F6E652E005A
:100F7000466F756E6420002064657669636528732A
:040F8000292E000016
:107E0000112484B714BE81FFF0D085E080938100F7
:107E100082E08093C00088E18093C10086E0809377
:107E2000C20080E18093C4008EE0C9D0259A86E02C
:107E300020E33CEF91E0309385002093840096BBD3
:107E4000B09BFECF1D9AA8958150A9F7CC24DD24C4
:107E500088248394B5E0AB2EA1E19A2EF3E0BF2EE7
:107E6000A2D0813461F49FD0082FAFD0023811F036
:107E7000013811F484E001C083E08DD089C08234E0
:107E800011F484E103C0853419F485E0A6D080C0E4
:107E9000853579F488D0E82EFF2485D0082F10E0AE
:107EA000102F00270E291F29000F111F8ED06801E7
:107EB0006FC0863521F484E090D080E0DECF843638
:107EC00009F040C070D06FD0082F6DD080E0C81688
:107ED00080E7D80618F4F601B7BEE895C0E0D1E017
:107EE00062D089930C17E1F7F0E0CF16F0E7DF06D8
:107EF00018F0F601B7BEE89568D007B600FCFDCFD4
:107F0000A601A0E0B1E02C9130E011968C91119780
:107F100090E0982F8827822B932B1296FA010C0160
:107F200087BEE89511244E5F5F4FF1E0A038BF0790
:107F300051F7F601A7BEE89507B600FCFDCF97BE46
:107F4000E89526C08437B1F42ED02DD0F82E2BD052
:107F50003CD0F601EF2C8F010F5F1F4F84911BD097
:107F6000EA94F801C1F70894C11CD11CFA94CF0C13
:107F7000D11C0EC0853739F428D08EE10CD085E9AC
:107F80000AD08FE07ACF813511F488E018D01DD067
:107F900080E101D065CF982F8091C00085FFFCCF94
:107FA0009093C60008958091C00087FFFCCF809118
:107FB000C00084FD01C0A8958091C6000895E0E648
:107FC000F0E098E1908380830895EDDF803219F02E
:107FD00088E0F5DFFFCF84E1DECF1F93182FE3DFCA
:107FE0001150E9F7F2DF1F91089580E0E8DFEE27F6
:047FF000FF270994CA
:027FFE00040479
:00000001FF
